{
  "contractName": "Budget",
  "abi": [
    {
      "inputs": [
        {
          "internalType": "address",
          "name": "",
          "type": "address"
        }
      ],
      "name": "AddressToBudgetHash",
      "outputs": [
        {
          "internalType": "string",
          "name": "",
          "type": "string"
        }
      ],
      "stateMutability": "view",
      "type": "function"
    },
    {
      "inputs": [],
      "name": "get",
      "outputs": [
        {
          "internalType": "string",
          "name": "",
          "type": "string"
        }
      ],
      "stateMutability": "view",
      "type": "function"
    },
    {
      "inputs": [
        {
          "internalType": "address",
          "name": "_addr",
          "type": "address"
        },
        {
          "internalType": "string",
          "name": "_BudgetHash",
          "type": "string"
        }
      ],
      "name": "set",
      "outputs": [],
      "stateMutability": "nonpayable",
      "type": "function"
    }
  ],
  "bytecode": "0x608060405234801561001057600080fd5b506108af806100206000396000f3fe608060405234801561001057600080fd5b50600436106100415760003560e01c80632a8a4080146100465780635a82d100146100765780636d4ce63c14610092575b600080fd5b610060600480360381019061005b9190610318565b6100b0565b60405161006d91906103de565b60405180910390f35b610090600480360381019061008b9190610535565b610150565b005b61009a6101d8565b6040516100a791906103de565b60405180910390f35b600060205280600052604060002060009150905080546100cf906105c0565b80601f01602080910402602001604051908101604052809291908181526020018280546100fb906105c0565b80156101485780601f1061011d57610100808354040283529160200191610148565b820191906000526020600020905b81548152906001019060200180831161012b57829003601f168201915b505050505081565b8173ffffffffffffffffffffffffffffffffffffffff163373ffffffffffffffffffffffffffffffffffffffff161461018857600080fd5b806000808473ffffffffffffffffffffffffffffffffffffffff1673ffffffffffffffffffffffffffffffffffffffff16815260200190815260200160002090816101d391906107a7565b505050565b60606000803373ffffffffffffffffffffffffffffffffffffffff1673ffffffffffffffffffffffffffffffffffffffff1681526020019081526020016000208054610223906105c0565b80601f016020809104026020016040519081016040528092919081815260200182805461024f906105c0565b801561029c5780601f106102715761010080835404028352916020019161029c565b820191906000526020600020905b81548152906001019060200180831161027f57829003601f168201915b5050505050905090565b6000604051905090565b600080fd5b600080fd5b600073ffffffffffffffffffffffffffffffffffffffff82169050919050565b60006102e5826102ba565b9050919050565b6102f5816102da565b811461030057600080fd5b50565b600081359050610312816102ec565b92915050565b60006020828403121561032e5761032d6102b0565b5b600061033c84828501610303565b91505092915050565b600081519050919050565b600082825260208201905092915050565b60005b8381101561037f578082015181840152602081019050610364565b8381111561038e576000848401525b50505050565b6000601f19601f8301169050919050565b60006103b082610345565b6103ba8185610350565b93506103ca818560208601610361565b6103d381610394565b840191505092915050565b600060208201905081810360008301526103f881846103a5565b905092915050565b600080fd5b600080fd5b7f4e487b7100000000000000000000000000000000000000000000000000000000600052604160045260246000fd5b61044282610394565b810181811067ffffffffffffffff821117156104615761046061040a565b5b80604052505050565b60006104746102a6565b90506104808282610439565b919050565b600067ffffffffffffffff8211156104a05761049f61040a565b5b6104a982610394565b9050602081019050919050565b82818337600083830152505050565b60006104d86104d384610485565b61046a565b9050828152602081018484840111156104f4576104f3610405565b5b6104ff8482856104b6565b509392505050565b600082601f83011261051c5761051b610400565b5b813561052c8482602086016104c5565b91505092915050565b6000806040838503121561054c5761054b6102b0565b5b600061055a85828601610303565b925050602083013567ffffffffffffffff81111561057b5761057a6102b5565b5b61058785828601610507565b9150509250929050565b7f4e487b7100000000000000000000000000000000000000000000000000000000600052602260045260246000fd5b600060028204905060018216806105d857607f821691505b6020821081036105eb576105ea610591565b5b50919050565b60008190508160005260206000209050919050565b60006020601f8301049050919050565b600082821b905092915050565b6000600883026106537fffffffffffffffffffffffffffffffffffffffffffffffffffffffffffffffff82610616565b61065d8683610616565b95508019841693508086168417925050509392505050565b6000819050919050565b6000819050919050565b60006106a461069f61069a84610675565b61067f565b610675565b9050919050565b6000819050919050565b6106be83610689565b6106d26106ca826106ab565b848454610623565b825550505050565b600090565b6106e76106da565b6106f28184846106b5565b505050565b5b818110156107165761070b6000826106df565b6001810190506106f8565b5050565b601f82111561075b5761072c816105f1565b61073584610606565b81016020851015610744578190505b61075861075085610606565b8301826106f7565b50505b505050565b600082821c905092915050565b600061077e60001984600802610760565b1980831691505092915050565b6000610797838361076d565b9150826002028217905092915050565b6107b082610345565b67ffffffffffffffff8111156107c9576107c861040a565b5b6107d382546105c0565b6107de82828561071a565b600060209050601f83116001811461081157600084156107ff578287015190505b610809858261078b565b865550610871565b601f19841661081f866105f1565b60005b8281101561084757848901518255600182019150602085019450602081019050610822565b868310156108645784890151610860601f89168261076d565b8355505b6001600288020188555050505b50505050505056fea2646970667358221220799a1e0875060a265da90795c7c5488643f8a9281bacec181b8e4be9c416ffd464736f6c634300080f0033",
  "immutableReferences": {},
  "source": "pragma solidity ^0.8.4;\n\ncontract Budget {\n  \n  mapping(address => string ) public AddressToBudgetHash;\n\n  function get() public view returns (string memory) {\n        return AddressToBudgetHash[msg.sender];\n    }\n\n  function set(address _addr, string memory _BudgetHash) public {\n        require(msg.sender == _addr);\n        AddressToBudgetHash[_addr] = _BudgetHash;\n    }\n\n}\n",
  "sourcePath": "/Users/admin/Desktop/budget/src/contracts/Budget.sol",
  "compiler": {
    "name": "solc",
    "version": "0.8.15+commit.e14f2714.Emscripten.clang"
  },
  "schemaVersion": "3.4.7",
  "updatedAt": "2022-08-07T04:30:37.461Z",
  "devdoc": {
    "kind": "dev",
    "methods": {},
    "version": 1
  },
  "userdoc": {
    "kind": "user",
    "methods": {},
    "version": 1
  }
}